:100000000C942A000C9434000C9434000C943400AA
:100010000C9434000C9434000C9434000C94340090
:100020000C9434000C9434000C9434000C94340080
:100030000C9434000C9434000C9434000C94340070
:100040000C9434000C9434000C9434000C94340060
:100050000C94340011241FBECFE5D8E0DEBFCDBF25
:100060000E9436000C944F000C9400008FEF87BB69
:1000700018BA81E088BB2FEF37EA91E62150304073
:100080009040E1F700C0000018BA2FEF37EA91E680
:10009000215030409040E1F700C00000EBCFF894D1
:0200A000FFCF90
:00000001FF
