S01700004763634170706C69636174696F6E382E7372656354
S11300000C942A000C9434000C9434000C943400A6
S11300100C9434000C9434000C9434000C9434008C
S11300200C9434000C9434000C9434000C9434007C
S11300300C9434000C9434000C9434000C9434006C
S11300400C9434000C9434000C9434000C9434005C
S11300500C94340011241FBECFE5D8E0DEBFCDBF21
S11300600E9436000C9462000C9400008FEF8ABB4F
S11300701BBA88E290E021E02BBBE3EFF1E031977B
S1130080F1F700C000001BBAE3E9F1E13197F1F7A1
S113009000C00000019781F788E290E021E02BBBCB
S11300A0E9EFF0E03197F1F700C000001BBAEDE88A
S11300B0F2E13197F1F700C00000019781F780E089
S10B00C090E00895F894FFCFCD
S9030000FC
